{
  "contractName": "TimeCapsule",
  "abi": [
    {
      "constant": false,
      "inputs": [],
      "name": "renounceOwnership",
      "outputs": [],
      "payable": false,
      "stateMutability": "nonpayable",
      "type": "function"
    },
    {
      "constant": true,
      "inputs": [],
      "name": "owner",
      "outputs": [
        {
          "name": "",
          "type": "address"
        }
      ],
      "payable": false,
      "stateMutability": "view",
      "type": "function"
    },
    {
      "constant": true,
      "inputs": [],
      "name": "isOwner",
      "outputs": [
        {
          "name": "",
          "type": "bool"
        }
      ],
      "payable": false,
      "stateMutability": "view",
      "type": "function"
    },
    {
      "constant": true,
      "inputs": [
        {
          "name": "",
          "type": "address"
        },
        {
          "name": "",
          "type": "uint256"
        }
      ],
      "name": "userMessages",
      "outputs": [
        {
          "name": "",
          "type": "uint256"
        }
      ],
      "payable": false,
      "stateMutability": "view",
      "type": "function"
    },
    {
      "constant": true,
      "inputs": [
        {
          "name": "",
          "type": "address"
        },
        {
          "name": "",
          "type": "uint256"
        }
      ],
      "name": "messagesForUser",
      "outputs": [
        {
          "name": "",
          "type": "uint256"
        }
      ],
      "payable": false,
      "stateMutability": "view",
      "type": "function"
    },
    {
      "constant": false,
      "inputs": [
        {
          "name": "newOwner",
          "type": "address"
        }
      ],
      "name": "transferOwnership",
      "outputs": [],
      "payable": false,
      "stateMutability": "nonpayable",
      "type": "function"
    },
    {
      "inputs": [],
      "payable": false,
      "stateMutability": "nonpayable",
      "type": "constructor"
    },
    {
      "anonymous": false,
      "inputs": [
        {
          "indexed": false,
          "name": "messageId",
          "type": "uint256"
        }
      ],
      "name": "MessageCreated",
      "type": "event"
    },
    {
      "anonymous": false,
      "inputs": [
        {
          "indexed": false,
          "name": "messageId",
          "type": "uint256"
        }
      ],
      "name": "MessageRevoked",
      "type": "event"
    },
    {
      "anonymous": false,
      "inputs": [
        {
          "indexed": true,
          "name": "previousOwner",
          "type": "address"
        }
      ],
      "name": "OwnershipRenounced",
      "type": "event"
    },
    {
      "anonymous": false,
      "inputs": [
        {
          "indexed": true,
          "name": "previousOwner",
          "type": "address"
        },
        {
          "indexed": true,
          "name": "newOwner",
          "type": "address"
        }
      ],
      "name": "OwnershipTransferred",
      "type": "event"
    },
    {
      "constant": false,
      "inputs": [
        {
          "name": "recipient",
          "type": "address"
        },
        {
          "name": "policyId",
          "type": "string"
        },
        {
          "name": "signingKey",
          "type": "string"
        },
        {
          "name": "verifyingKey",
          "type": "string"
        },
        {
          "name": "timeStamp",
          "type": "string"
        },
        {
          "name": "fileLink",
          "type": "string"
        }
      ],
      "name": "createMessage",
      "outputs": [],
      "payable": false,
      "stateMutability": "nonpayable",
      "type": "function"
    },
    {
      "constant": false,
      "inputs": [
        {
          "name": "messageId",
          "type": "uint256"
        }
      ],
      "name": "revokeMessage",
      "outputs": [],
      "payable": true,
      "stateMutability": "payable",
      "type": "function"
    },
    {
      "constant": true,
      "inputs": [],
      "name": "getMessagesForUser",
      "outputs": [
        {
          "name": "",
          "type": "uint256[]"
        }
      ],
      "payable": false,
      "stateMutability": "view",
      "type": "function"
    },
    {
      "constant": true,
      "inputs": [],
      "name": "getMessagesByUser",
      "outputs": [
        {
          "name": "",
          "type": "uint256[]"
        }
      ],
      "payable": false,
      "stateMutability": "view",
      "type": "function"
    }
  ],
  "bytecode": "0x608060405234801561001057600080fd5b50336000806101000a81548173ffffffffffffffffffffffffffffffffffffffff021916908373ffffffffffffffffffffffffffffffffffffffff160217905550610d3a806100606000396000f3006080604052600436106100a4576000357c0100000000000000000000000000000000000000000000000000000000900463ffffffff16806306eb0f92146100a957806313e943f0146101155780635a5d8869146101d0578063715018a61461023c5780638da5cb5b146102535780638f32d59b146102aa5780639428cda3146102d9578063c334b6231461033a578063f2c0c3f81461035a578063f2fde38b146103bb575b600080fd5b3480156100b557600080fd5b506100be6103fe565b6040518080602001828103825283818151815260200191508051906020019060200280838360005b838110156101015780820151818401526020810190506100e6565b505050509050019250505060405180910390f35b34801561012157600080fd5b506101ce600480360381019080803573ffffffffffffffffffffffffffffffffffffffff169060200190929190803590602001908201803590602001919091929391929390803590602001908201803590602001919091929391929390803590602001908201803590602001919091929391929390803590602001908201803590602001919091929391929390803590602001908201803590602001919091929391929390505050610493565b005b3480156101dc57600080fd5b506101e5610875565b6040518080602001828103825283818151815260200191508051906020019060200280838360005b8381101561022857808201518184015260208101905061020d565b505050509050019250505060405180910390f35b34801561024857600080fd5b5061025161090a565b005b34801561025f57600080fd5b506102686109c4565b604051808273ffffffffffffffffffffffffffffffffffffffff1673ffffffffffffffffffffffffffffffffffffffff16815260200191505060405180910390f35b3480156102b657600080fd5b506102bf6109ed565b604051808215151515815260200191505060405180910390f35b3480156102e557600080fd5b50610324600480360381019080803573ffffffffffffffffffffffffffffffffffffffff16906020019092919080359060200190929190505050610a44565b6040518082815260200191505060405180910390f35b61035860048036038101908080359060200190929190505050610a74565b005b34801561036657600080fd5b506103a5600480360381019080803573ffffffffffffffffffffffffffffffffffffffff16906020019092919080359060200190929190505050610aae565b6040518082815260200191505060405180910390f35b3480156103c757600080fd5b506103fc600480360381019080803573ffffffffffffffffffffffffffffffffffffffff169060200190929190505050610ade565b005b6060600460003373ffffffffffffffffffffffffffffffffffffffff1673ffffffffffffffffffffffffffffffffffffffff16815260200190815260200160002080548060200260200160405190810160405280929190818152602001828054801561048957602002820191906000526020600020905b815481526020019060010190808311610475575b5050505050905090565b600061049d610bf7565b60016000815480929190600101919050559150610100604051908101604052808381526020013373ffffffffffffffffffffffffffffffffffffffff1681526020018e73ffffffffffffffffffffffffffffffffffffffff1681526020018d8d8080601f01602080910402602001604051908101604052809392919081815260200183838082843782019150505050505081526020018b8b8080601f016020809104026020016040519081016040528093929190818152602001838380828437820191505050505050815260200189898080601f016020809104026020016040519081016040528093929190818152602001838380828437820191505050505050815260200187878080601f016020809104026020016040519081016040528093929190818152602001838380828437820191505050505050815260200185858080601f01602080910402602001604051908101604052809392919081815260200183838082843782019150505050505081525090508060028381548110151561062357fe5b90600052602060002090600802016000820151816000015560208201518160010160006101000a81548173ffffffffffffffffffffffffffffffffffffffff021916908373ffffffffffffffffffffffffffffffffffffffff16021790555060408201518160020160006101000a81548173ffffffffffffffffffffffffffffffffffffffff021916908373ffffffffffffffffffffffffffffffffffffffff16021790555060608201518160030190805190602001906106e5929190610c69565b506080820151816004019080519060200190610702929190610c69565b5060a082015181600501908051906020019061071f929190610c69565b5060c082015181600601908051906020019061073c929190610c69565b5060e0820151816007019080519060200190610759929190610c69565b50905050600360003373ffffffffffffffffffffffffffffffffffffffff1673ffffffffffffffffffffffffffffffffffffffff168152602001908152602001600020829080600181540180825580915050906001820390600052602060002001600090919290919091505550600460008e73ffffffffffffffffffffffffffffffffffffffff1673ffffffffffffffffffffffffffffffffffffffff1681526020019081526020016000208290806001815401808255809150509060018203906000526020600020016000909192909190915055507fc1f8b3bf4a4a9f35c05be504dbea66622bf4ab94f023ddc493a6623351430585826040518082815260200191505060405180910390a150505050505050505050505050565b6060600360003373ffffffffffffffffffffffffffffffffffffffff1673ffffffffffffffffffffffffffffffffffffffff16815260200190815260200160002080548060200260200160405190810160405280929190818152602001828054801561090057602002820191906000526020600020905b8154815260200190600101908083116108ec575b5050505050905090565b6109126109ed565b151561091d57600080fd5b6000809054906101000a900473ffffffffffffffffffffffffffffffffffffffff1673ffffffffffffffffffffffffffffffffffffffff167ff8df31144d9c2f0f6b59d69b8b98abd5459d07f2742c4df920b25aae33c6482060405160405180910390a260008060006101000a81548173ffffffffffffffffffffffffffffffffffffffff021916908373ffffffffffffffffffffffffffffffffffffffff160217905550565b60008060009054906101000a900473ffffffffffffffffffffffffffffffffffffffff16905090565b60008060009054906101000a900473ffffffffffffffffffffffffffffffffffffffff1673ffffffffffffffffffffffffffffffffffffffff163373ffffffffffffffffffffffffffffffffffffffff1614905090565b600360205281600052604060002081815481101515610a5f57fe5b90600052602060002001600091509150505481565b7f41f050218f501b0bbe717ea041e936c84c22520fced275b84e264991e996a4ea816040518082815260200191505060405180910390a150565b600460205281600052604060002081815481101515610ac957fe5b90600052602060002001600091509150505481565b610ae66109ed565b1515610af157600080fd5b610afa81610afd565b50565b600073ffffffffffffffffffffffffffffffffffffffff168173ffffffffffffffffffffffffffffffffffffffff1614151515610b3957600080fd5b8073ffffffffffffffffffffffffffffffffffffffff166000809054906101000a900473ffffffffffffffffffffffffffffffffffffffff1673ffffffffffffffffffffffffffffffffffffffff167f8be0079c531659141344cd1fd0a4f28419497f9722a3daafe3b4186f6b6457e060405160405180910390a3806000806101000a81548173ffffffffffffffffffffffffffffffffffffffff021916908373ffffffffffffffffffffffffffffffffffffffff16021790555050565b6101006040519081016040528060008152602001600073ffffffffffffffffffffffffffffffffffffffff168152602001600073ffffffffffffffffffffffffffffffffffffffff16815260200160608152602001606081526020016060815260200160608152602001606081525090565b828054600181600116156101000203166002900490600052602060002090601f016020900481019282601f10610caa57805160ff1916838001178555610cd8565b82800160010185558215610cd8579182015b82811115610cd7578251825591602001919060010190610cbc565b5b509050610ce59190610ce9565b5090565b610d0b91905b80821115610d07576000816000905550600101610cef565b5090565b905600a165627a7a723058207fd19deda6d5e5664a31743dbadd89074d38aafdd8e1721b089aff7385e57b4b0029",
  "source": "pragma solidity ^0.4.23;\r\n\r\nimport \"openzeppelin-solidity/contracts/ownership/Ownable.sol\";\r\n\r\ncontract TimeCapsule is Ownable {\r\n\r\n    constructor() public {        \r\n    }\r\n\r\n    struct Message {\r\n        uint MessageId;\r\n        address Sender;\r\n        address Recipient; \r\n        string PolicyId;\r\n        string SigningKey;\r\n        string VerifyingKey;        \r\n        string Timestamp;\r\n        string FileLink;\r\n    }\r\n\r\n    uint messageCount;\r\n    Message[] allMessages;\r\n\r\n    event MessageCreated(uint messageId);\r\n    event MessageRevoked(uint messageId);\r\n   \r\n    mapping (address => uint[]) public userMessages; // Messages that the current user has added\r\n    mapping (address => uint[]) public messagesForUser;\r\n\r\n    function createMessage(address recipient, string policyId, string signingKey, string verifyingKey, string timeStamp, string fileLink)\r\n     external {\r\n        var messageId = messageCount++;\r\n\r\n        Message memory message = Message({\r\n            MessageId : messageId,\r\n            Sender : msg.sender,\r\n            Recipient : recipient,\r\n            PolicyId : policyId,\r\n            SigningKey : signingKey,\r\n            VerifyingKey : verifyingKey,\r\n            Timestamp : timeStamp,\r\n            FileLink : fileLink\r\n        });\r\n\r\n        allMessages[messageId] = message;        \r\n        userMessages[msg.sender].push(messageId);\r\n        messagesForUser[recipient].push(messageId);\r\n\r\n        emit MessageCreated(messageId);\r\n    }\r\n\r\n    function revokeMessage(uint messageId) external payable{\r\n        // TODO: Implement\r\n        // retrieve the message\r\n        // check if you're the sender of the message and the time hasn't passed\r\n        \r\n        emit MessageRevoked(messageId);\r\n    }\r\n\r\n    function getMessagesForUser() public view returns(uint[]) {\r\n        return messagesForUser[msg.sender];\r\n    }\r\n\r\n    function getMessagesByUser() public view returns(uint[]) {\r\n        return userMessages[msg.sender];\r\n    }\r\n}\r\n",
  "sourcePath": "C:\\Projects\\DApps\\Decentralizers\\ETHBerlin\\indestructibleTimeCapsule\\client\\contracts\\TimeCapsule.sol",
  "compiler": {
    "name": "solc",
    "version": "0.4.24+commit.e67f0147.Emscripten.clang"
  },
  "schemaVersion": "2.0.1",
  "updatedAt": "2018-09-08T16:09:18.530Z"
}